:020000040800F2
:1000000000060020E1010008E3010008E301000808
:10001000E3010008E3010008E3010008E301000830
:10002000E3010008E3010008E3010008E12F0008F4
:10003000E3010008E3010008E3010008E301000810
:10004000E3010008E3010008E3010008E301000800
:10005000E3010008E301000889320008B13200081A
:10006000D93200080133000829330008E3010008F1
:10007000E3010008E3010008E3010008E3010008D0
:10008000E3010008E3010008E3010008E3010008C0
:10009000E3010008E3010008E30100085133000810
:1000A000E3010008E3010008E3010008E3010008A0
:1000B00025340008E3010008E3010008E30100081B
:1000C000E3010008E3010008E3010008E301000880
:1000D000E3010008E3010008E3010008E301000870
:1000E000B5330008E3010008E3010008E30100085C
:1000F000E3010008E3010008E3010008E301000850
:10010000E3010008E3010008E3010008E30100083F
:10011000E3010008E3010008E3010008E30100082F
:10012000E3010008E3010008E3010008E30100081F
:10013000E3010008E3010008E3010008E30100080F
:10014000E3010008E3010008E3010008C1270008FB
:10015000E3010008E3010008E3010008E3010008EF
:10016000E3010008E3010008E3010008E3010008DF
:10017000E3010008E3010008E3010008E3010008CF
:10018000E3010008E3010008E3010008E3010008BF
:10019000E3010008E3010008E3010008E3010008AF
:1001A000E3010008E3010008E3010008E30100089F
:1001B000E3010008E3010008E3010008E30100088F
:1001C000E3010008E3010008E3010008E30100087F
:1001D000E3010008E3010008E3010008E30100086F
:1001E00002E000F000F8FEE772B6374880F30888B6
:1001F000364880F3098836483649086040F20000E6
:10020000CCF200004EF63471CEF200010860BFF36C
:100210004F8FBFF36F8F40F20000C0F2F0004EF638
:100220008851CEF200010860BFF34F8FBFF36F8F8C
:100230004FF00000E1EE100A4EF63C71CEF20001E4
:100240000860062080F31488BFF36F8F01F084FFED
:1002500002F066FE4FF055301F491B4A91423CBFE9
:1002600041F8040BFAE71D49184A91423CBF41F896
:10027000040BFAE71A491B4A1B4B9A423EBF51F83E
:10028000040B42F8040BF8E700201849184A914281
:100290003CBF41F8040BFAE701F062FF02F092FE66
:1002A000144C154DAC4203DA54F8041B8847F9E7A7
:1002B00000F0A0F8114C124DAC4203DA54F8041BC4
:1002C0008847F9E701F04ABF00060020002200201D
:1002D0000000000808ED00E00000002000060020FB
:1002E000D8370008002200204022002040220020B1
:1002F000682E0020E0010008E0010008E00100088D
:10030000E00100082DE9F04F2DED108AC1F80CD066
:10031000C3689D46BDEC108ABDE8F08F002383F3CF
:1003200011882846A047002001F0D2FAFEE701F02C
:1003300061FA00DFFEE7000080EA0102844612F065
:10034000030F4FD111F0030F32D14DF8044D11F0CE
:10035000040F51F8043B0BD0A3F101329A4312F081
:10036000803F04BF4CF8043B51F8043B16D100BF5A
:1003700051F8044BA3F101329A4312F0803FA4F1EB
:1003800001320BD14CF8043BA24312F0803F04BF72
:1003900051F8043B4CF8044BEAD023460CF8013BDF
:1003A00013F0FF0F4FEA3323F8D15DF8044B704789
:1003B00011F0010F06D011F8012B0CF8012B002AC7
:1003C00008BF704711F0020FBFD031F8022B12F0B6
:1003D000FF0F16BF2CF8022B8CF8002012F47F4F71
:1003E000B3D1704711F8012B0CF8012B002AF9D179
:1003F000704700BF38B500F0ADFB01F07DFE05464B
:1004000001F0A0FE0446C8B90F4B9D4219D001333C
:100410009D4218BF044641F2883504BF01240025DF
:10042000002001F073FE0CB100F076F800F000FD42
:10043000284600F0C5F800F06FF8F9E70025012420
:10044000EEE70546ECE700BF010007B008B500F095
:1004500055FBA0F120035842584108BD07B541F2B1
:100460001203022101A8ADF8043000F063FB03B0D1
:100470005DF804FB38B5302383F31188174803680F
:100480000BB101F0F1FA164A144800234FF47A71C7
:1004900001F0E0FA002383F31188124C236813B1B2
:1004A0002368013B2360636813B16368013B6360A9
:1004B0000D4D2B7833B963687BB9022000F020FC26
:1004C000322363602B78032B07D163682BB902209A
:1004D00000F016FC4FF47A73636038BD502300209F
:1004E00075040008442300204C230020084B18709A
:1004F00003280CD8DFE800F008050208022000F00D
:10050000EFBB022000F0DCBB024B00225A607047B8
:100510004C23002044230020244B254A10B51C46C0
:100520001968013140D004339342F9D16268214BFC
:100530009A4239D9204B9B6803F1006303F580335D
:100540009A4231D2002000F01FFB0220FFF7CEFFBD
:100550001A4B1A6C00221A64196E1A66196E596CBD
:100560005A64596E5A665A6E5A6942F080025A614C
:100570005A6922F080025A615A691A6942F000529F
:100580001A611A6922F000521A611B6972B64FF0A3
:10059000E0233021C3F8084DD4E9003281F31188FB
:1005A0009D4683F30888104710BD00BF0000010876
:1005B00020000108FFFF0008002200200038024050
:1005C0002DE9F04F95B0DFF8FCB201902022FF2119
:1005D0000CA8DBF8086000F0D5FBB54A1378A3B986
:1005E000B448012103601170302383F3118803683C
:1005F0000BB101F039FAB04AAE4800234FF47A71DA
:1006000001F028FA002383F31188019B13B1AB4B4F
:10061000019A1A60AA4A019D1378032B1EBF00237A
:100620001370A64A4FF0000918BF5360CA464C46E3
:10063000C846012000F054FB25B1A04B1B68002BDD
:1006400000F00582002000F059FA0590059B002B70
:10065000F2DB012000F034FB059B213B162BE8D890
:1006600001A252F823F000BFC5060008ED060008FD
:100670007F07000833060008330600083306000829
:10068000FD070008BF090008D90800083B09000859
:100690006309000889090008330600089B0900085F
:1006A000330600080D0A0008630700083306000837
:1006B000550A0008D1060008630700083306000841
:1006C0003B0900080220FFF7C1FE002840F0ED8042
:1006D000019BB9F1000F08BF1D4641F21233022100
:1006E00007A8ADF81C3000F025FAA2E74FF47A70A5
:1006F00000F004FA071EEBDB0220FFF7A7FE00283C
:10070000E6D0013F052F00F2CD81DFE807F0030AB4
:100710000D10133505230793042107A800F00AFAEA
:1007200017E068480421F9E767480421F6E76748BD
:100730000421F3E74FF01C08404600F027FA08F1C7
:1007400004080790042107A800F0F4F9B8F12C0F71
:10075000F2D10123BB404AEA03035FFA83FA4FF068
:10076000000800F05BFB24B10AF00B030B2B08BF61
:100770000025FFF773FE5CE755480421CEE7002C07
:10078000A6D00AF00B030B2B5AD10220FFF75EFE16
:100790000446002854D0012000F0F6F90220FFF7AB
:1007A000A5FE00271FFA87F9484600F0FDF9054627
:1007B00088B9434B012202201A7000F081FA2E46BC
:1007C000DBF80830B34212D83D4B00261E703B4B7D
:1007D000A1465E60C5E70021484600F0F5F9013703
:1007E00005460028DED1A14641F2121377E73046D4
:1007F00000F0CCF90130F6D10436E1E7002C3FF4EB
:1008000067AF0AF00B030B2B1AD10220FFF76EFE25
:10081000322000F073F9071E12DB17F003030FD12B
:10082000DBF80810BA198A420AD8B7F5807F07D8D2
:10083000284A9F4206DCC820FFF708FE044698B904
:10084000012445E74FF47A70CDE9023200F056F901
:10085000059005990029FFF63BAF039A029B059985
:1008600002F8011B0133E4E71F2E11D8C6F1200264
:10087000BA420CAB26F0030028BF3A461549029253
:10088000184400F05FFA029A1248FF2100F07AFA49
:10089000BB1010490293C7F38702304600F07AFA82
:1008A0000028A1D0029B06EB8306044659E700BF4F
:1008B000402300205023002075040008442300201A
:1008C0004C230020002200200422002008220020C7
:1008D0000C220020402200200220FFF7B7FD002854
:1008E0003FF4F6AE00F09CF900283FF4F1AE00278B
:1008F0003B4612E01F2F1AD80C9A013217D027F06E
:10090000030250326A4452F8200C07900422184621
:1009100007A900F0B7FA04370346DBF80820BA420B
:10092000E8D80793042107A800F004F919E738462E
:10093000029300F02BF9029BE7E70023642106A84D
:10094000069300F0EFF800287FF4C2AE0220FFF714
:100950007DFD00283FF4BCAE069800F049F90790F1
:10096000E0E70023642106A8069300F0DBF80028E6
:100970007FF4AEAE0220FFF769FD00283FF4A8AE79
:10098000069800F045F9EAE70220FFF75FFD00282E
:100990003FF49EAE00F054F9E1E70220FFF756FD68
:1009A00000283FF495AE07A9142000F04FF9042168
:1009B0000746069006A800F0BDF83946B3E7322096
:1009C00000F09CF8071EFFF683AEBB077FF480AEF5
:1009D000DBF8082007EB080393423FF679AE0220CC
:1009E000FFF734FD00283FF473AE27F003074744B8
:1009F000B8453FF4B6AE404600F0C8F80421079071
:100A000007A800F097F808F10408F1E74FF47A70AE
:100A1000FFF71CFD00283FF45BAE00F001F9002851
:100A20003FF4E2AE0C9B01330CD008220CA900204D
:100A300000F0B0F900283FF4D7AE2022FF210CA827
:100A400000F0A0F9FFF70AFD184800F047FF15B0C5
:100A5000BDE8F08F002C3FF43BAE0AF00B030B2BEC
:100A60007FF436AE0023642107A8079300F05AF8FC
:100A7000074600287FF42CAE0220FFF7E7FC029027
:100A800000283FF425AEFFF7E9FC41F2883000F082
:100A900025FF079800F0F4F900F0C0F9029B3D46ED
:100AA0001C46C6E54FF0000812E600BFA086010014
:100AB00070B50F4B1B780133DBB2012B05460C469A
:100AC00010D80C4801684FF47A730E6AA2FB033207
:100AD00029462246B047844204D1074B00221A70AF
:100AE000012070BD4FF4FA7000F0F8FE0020F8E726
:100AF00010220020A02800209823002007B5002302
:100B0000024601210DF107008DF80730FFF7D0FFF5
:100B100020B19DF8070003B05DF804FB4FF0FF30F3
:100B2000F9E7000008B50A460421FFF7C1FF0138C4
:100B300008BD000030B4054604480368DC69044B76
:100B40000A46A446294630BC604700BFA0280020C2
:100B5000A086010070B501F0D9F9094E094C30802A
:100B6000002520683388834208D901F0C9F9236839
:100B700005440133B5F5803F2360F2D370BD00BF5B
:100B8000902300209423002001F06ABA00F1006055
:100B900000F580300068704700F10060920000F5B9
:100BA000803001F0F9B90000054B1A68054B1B882D
:100BB0009B1A834202D9104401F0A2B90020704769
:100BC000942300209023002038B5084D044628685F
:100BD00029B128682044BDE8384001F0B1B920446B
:100BE00001F096F90028F4D038BD00BF942300200E
:100BF000034610F0030009D1B3F5047F07D203F1D7
:100C00000053A3F51043D3F8000870470020704745
:100C100000F10050A0F51040D0F8100A7047000015
:100C2000064991F8243033B10023086A81F8243052
:100C30000822FFF7B1BF0120704700BF68230020E2
:100C4000014B1868704700BF002004E070B5194BD5
:100C5000194A1D68431EC5F30B040B442D0C0520D7
:100C6000013808D19942084610D3144A0624013CA1
:100C700015D1401A70BD1688A6420ED1526808469A
:100C8000013A9842F1D212F9014F1CB92C2200F816
:100C9000012BEAE700F8014BF3E70832E0E716889A
:100CA000AE4204D198423CBF967800F8016B043202
:100CB000DDE700BF002004E04C350008B834000830
:100CC000022804D1054B4FF080429A6170470128F9
:100CD000FCD1024B4FF00052F7E700BF000002408A
:100CE000022804D1054B4FF480429A6170470128D5
:100CF000FCD1024B4FF40052F7E700BF0000024066
:100D0000022805D1064A536983F480435361704732
:100D10000128FCD1024A536983F40053F6E700BF6F
:100D20000000024070B504464FF47A7604B970BDF5
:100D3000412C254628BF412506FB05F000F0CEFDDD
:100D4000641BF3E710B50023934200D110BDCC5CC7
:100D5000C4540133F8E7000010B5013810F9013F21
:100D60003BB191F900409C4203D11AB10131013AE3
:100D7000F4E71AB191F90020981A10BD1046FCE76B
:100D8000FFF7FEBF02440346934200D1704703F8C9
:100D9000011BF9E72DE9F8431F4D144695F824206F
:100DA0000746884622B9DFF870906CB9012009E047
:100DB0002B6A03EB82038342F5D0FFF731FF002853
:100DC000F1D10020BDE8F88395F824302BB920221A
:100DD000FF2148462F62FFF7D5FF95F82400C0F1A8
:100DE0000802A24228BF2246D6B24146920005EB35
:100DF0008000FFF7A7FF95F82430A41B1E44F6B22D
:100E0000082E17449044E4B285F82460CDD1FFF752
:100E100007FF0028C9D1D4E768230020024B1A78C5
:100E2000024B1A70704700BF982300201022002048
:100E300038B5104D104C284600F0B4F8214628462D
:100E400000F0DCF82468626DD2F8043843F0020345
:100E5000C2F804384FF47A70FFF764FF0749204660
:100E600000F0D4F9626DD2F8043823F00203C2F81E
:100E7000043838BDA0280020AC350008B43500087F
:100E80007047000030B5094D0A44914200D130BD91
:100E900011F8013B5840082340F30004013B2C406B
:100EA00013F0FF0384EA5000F6D1EEE72083B8ED9B
:100EB000026843680A43026003B1184770470000A4
:100EC00013B5446BD4F894341A681178042915D1F9
:100ED000217C022912D11979128901238B401342F6
:100EE0000CD101A904F14C0001F0D8FED4F89444CF
:100EF000019B21790246206800F0D2F902B010BDB2
:100F0000143001F061BE00004FF0FF33143001F0E7
:100F10005BBE00004C3001F02DBF00004FF0FF33EE
:100F20004C3001F027BF0000143001F02FBE00004C
:100F30004FF0FF31143001F029BE00004C3001F0B9
:100F4000F9BE00004FF0FF324C3001F0F3BE00005C
:100F50000020704710B5D0F894341A68117804292D
:100F6000044617D1017C022914D1597952890123F1
:100F70008B4013420ED1143001F0C2FD024648B13D
:100F8000D4F894044FF4807341790068BDE81040B0
:100F900000F074B910BD0000406BFFF7DBBF00002C
:100FA000704700007FB5124B036000234360C0E927
:100FB0000233012502260F4B05740446029001936B
:100FC00000F18402294600964FF48073143001F03A
:100FD00073FD094B0294CDE9006304F523724FF4CD
:100FE0008073294604F14C0001F034FE04B070BD5A
:100FF0006C350008990F0008C10E00080B683022FC
:1010000082F311880A7903EB820290614A790932EE
:1010100043F822008A7912B103EB8203986102231C
:10102000C0F894140374002080F311887047000006
:1010300038B5037F044613B190F85430ABB9201D86
:1010400001250221FFF734FF04F1140025776FF02A
:10105000010100F06BFC84F8545004F14C006FF077
:101060000101BDE8384000F061BC38BD10B5012178
:1010700004460430FFF71CFF0023237784F8543024
:1010800010BD000038B504460025143001F02CFDD9
:1010900004F14C00257701F0F5FD201D84F8545033
:1010A0000121FFF705FF2046BDE83840FFF752BF9A
:1010B00090F8442002F06002202A034615D190F8EF
:1010C0004520212A4FF0000002D81F2A03D870477C
:1010D000222A07D07047064A9A630722DA63186407
:1010E00001207047C3E90E00F9E70020704700BFF8
:1010F0001122002037B5D0F894341A6811780429E9
:1011000004461AD1017C022917D1197912890123C9
:101110008B40134211D100F14C05284601F070FEBE
:1011200058B101A9284601F0B9FDD4F89444019BB7
:1011300021790246206800F0B3F803B030BD00000A
:1011400000EB8103F7B59E6904460D46F6B13023E6
:1011500083F3118804EB8507301D0821FFF7A8FEF3
:10116000FB685B691B684C3613B1304601F0A4FD87
:1011700001A9304601F092FD024648B1019B294683
:10118000204600F08DF8002383F3118803B0F0BDF2
:10119000FB685A691268002AF5D01B8A013B13408C
:1011A000F1D104F14402EAE7093138B550F82140A1
:1011B000DCB1302383F31188D4F894241368527976
:1011C00003EB8203DB689B695D6845B1042160180D
:1011D000FFF76EFE294604F1140001F09BFC204647
:1011E000FFF7B8FE002383F3118838BD7047000075
:1011F00001F00AB8012303700023C0E90133C36181
:1012000083620362C36243620363704738B5044676
:10121000302383F311880025C0E90355C0E9055543
:10122000416001F001F80223237085F311882846FC
:1012300038BD000070B500EB810305465069DA60E7
:101240000E46144618B110220021FFF79BFDA0693D
:1012500018B110220021FFF795FD31462846BDE860
:10126000704001F0ABB80000826802F001128260A9
:101270000022C0E90422826101F02AB9F0B400EB37
:1012800081044789E4680125A4698D403D43458177
:1012900023600023A2606360F0BC01F045B9000048
:1012A000F0B400EB81040789E468012564698D408E
:1012B0003D43058123600023A2606360F0BC01F020
:1012C000BDB9000070B50223002504460370C0E9D3
:1012D0000255C0E90455C564856180F8345001F0B9
:1012E00009F863681B6823B129462046BDE87040B1
:1012F000184770BD0378052B10B504460AD080F856
:1013000050300523037043681B680BB104219847D4
:101310000023A36010BD00000178052906D190F8D4
:101320005020436802701B6803B1184770470000E3
:1013300070B590F83430044613B1002380F834308F
:1013400004F14402204601F0E5F863689B68B3B9F4
:1013500094F8443013F0600535D00021204601F0A8
:1013600077FB0021204601F069FB63681B6813B11D
:10137000062120469847062384F8343070BD204665
:1013800098470028E4D0B4F84A30E26B9A4288BF0C
:10139000E36394F94430E56B002B4FF0300380F2A7
:1013A0000381002D00F0F280092284F8342083F3B9
:1013B00011880021D4E90E232046FFF771FF002396
:1013C00083F31188DAE794F8452003F07F0343EABA
:1013D000022340F20232934200F0C58021D8B3F5D7
:1013E000807F48D00DD8012B3FD0022B00F0938096
:1013F000002BB2D104F14C02A2630222E263236407
:10140000C1E7B3F5817F00F09B80B3F5407FA4D1A5
:1014100094F84630012BA0D1B4F84C3043F00203CD
:1014200032E0B3F5006F4DD017D8B3F5A06F31D0CF
:10143000A3F5C063012B90D8636894F846205E68DA
:1014400094F84710B4F848302046B047002884D0BC
:101450004368A3630368E3631AE0B3F5106F36D003
:1014600040F6024293427FF478AF5C4BA3630223C1
:10147000E3630023C3E794F84630012B7FF46DAF9C
:10148000B4F84C3023F00203C4E90E55A4F84C30F4
:10149000256478E7B4F84430B3F5A06F0ED194F822
:1014A000463084F84E30204600F07CFF63681B68AD
:1014B00013B1012120469847032323700023C4E978
:1014C0000E339CE704F14F03A3630123C3E72378A2
:1014D000042B10D1302383F311882046FFF7C4FE7C
:1014E00085F311880321636884F84F5021701B68CD
:1014F0000BB12046984794F84630002BDED084F894
:101500004F300423237063681B68002BD6D0022160
:1015100020469847D2E794F848301D0603F00F01A3
:1015200020460AD500F0E8FF012804D002287FF405
:1015300014AF2B4B9AE72B4B98E700F0CFFFF3E764
:1015400094F84630002B7FF408AF94F8483013F03D
:101550000F01B3D01A06204602D501F08DFAADE78F
:1015600001F080FAAAE794F84630002B7FF4F5AE3C
:1015700094F8483013F00F01A0D01B06204602D586
:1015800001F066FA9AE701F059FA97E7142284F815
:10159000342083F311882B462A4629462046FFF73C
:1015A0006DFE85F31188E9E65DB1152284F83420DB
:1015B00083F311880021D4E90E232046FFF75EFE55
:1015C000FDE60B2284F8342083F311882B462A464B
:1015D00029462046FFF764FEE3E700BF9C3500087C
:1015E000983500089435000838B590F83430044632
:1015F000002B3ED0063BDAB20F2A34D80F2B32D85C
:10160000DFE803F037313108223231313131313105
:1016100031313737C56BB0F84A309D4214D2C368B8
:101620001B8AB5FBF3F203FB12556DB9302383F32C
:1016300011882B462A462946FFF732FE85F311888A
:101640000A2384F834300EE0142384F83430302335
:1016500083F3118800231A4619462046FFF70EFE31
:10166000002383F3118838BD036C03B1984700232E
:10167000E7E70021204601F0EBF90021204601F0C8
:10168000DDF963681B6813B10621204698470623DD
:10169000D7E7000010B590F83430142B044629D059
:1016A00017D8062B05D001D81BB110BD093B022B62
:1016B000FBD80021204601F0CBF90021204601F0A3
:1016C000BDF963681B6813B10621204698470623BD
:1016D00019E0152BE9D10B2380F83430302383F344
:1016E000118800231A461946FFF7DAFD002383F319
:1016F0001188DAE7C3689B695B68002BD5D1036C5E
:1017000003B19847002384F83430CEE700230375F3
:10171000826803691B6899689142FBD25A6803602A
:101720004260106058607047002303758268036947
:101730001B6899689142FBD85A6803604260106048
:101740005860704708B50846302383F311880B7D35
:10175000032B05D0042B0DD02BB983F3118808BDC2
:101760008B6900221A604FF0FF338361FFF7CEFFD1
:101770000023F2E7D1E9003213605A60F3E700007A
:10178000FFF7C4BF054BD9680875186802681A606E
:10179000536001220275D860FEF7B4BDB025002069
:1017A00030B50C4BDD684B1C87B004460FD02B4680
:1017B000094A684600F04EF92046FFF7E3FF009B18
:1017C00013B1684600F050F9A86907B030BDFFF7C3
:1017D000D9FFF9E7B025002045170008044B1A6827
:1017E000DB6890689B68984294BF00200120704796
:1017F000B0250020084B10B51C68D86822681A6014
:10180000536001222275DC60FFF78EFF01462046FF
:10181000BDE81040FEF776BDB025002038B5074C76
:1018200007490848012300252370656001F020FB6B
:101830000223237085F3118838BD00BF08260020DD
:10184000A0350008B025002000F044B9034A5168D3
:1018500053685B1A9842FBD8704700BF001000E045
:101860008B60022308618B82084670478368A3F16E
:10187000840243F8142C026943F8442C426943F86B
:10188000402C094A43F8242CC26843F8182C022241
:1018900003F80C2C002203F80B2C044A43F8102CFC
:1018A000A3F12000704700BF1D030008B0250020F1
:1018B00008B5FFF7DBFFBDE80840FFF761BF000098
:1018C000024BDB6898610F20FFF75CBFB02500205A
:1018D000302383F31188FFF7F3BF000008B50146FA
:1018E000302383F311880820FFF75AFF002383F386
:1018F000118808BD064BDB6839B1426818605A6030
:10190000136043600420FFF74BBF4FF0FF30704778
:10191000B025002003460068834205D002681A60A3
:1019200053608161FFF72CBF7047000038B5044653
:101930000D462068844200D138BD036823605C6096
:101940008561FFF71DFFF4E710B503689C68A242AC
:101950000CD85C688A600B604C60216059609968A3
:10196000891A99604FF0FF33836010BD1B68121B0A
:10197000ECE700000A2938BF0A2170B504460D467D
:101980000A26601901F06EFA01F05AFA041BA5420A
:1019900003D8751C2E460446F3E70A2E04D9BDE889
:1019A0007040012001F0A4BA70BD0000F8B5144BDE
:1019B0001446D961826003F1100242600A2C1A6950
:1019C000026038BF0A245060186108190D4601F002
:1019D0003BFA0A2701F034FA431BA342064606D31A
:1019E0007C1C281901F03EFA27463546F2E70A2FFB
:1019F00004D9BDE8F840012001F07ABAF8BD00BF73
:101A0000B025002070B50D46064601F019FA0F49C1
:101A10000B4653F8102F9A4206D12A46014630460B
:101A2000BDE87040FFF7C2BFCB69C41A2C19936898
:101A300028BF2C46A34202D92946FFF79BFF224626
:101A400031460348BDE87040FFF77EBFB025002057
:101A5000C025002010B4C0E9032300235DF8044B27
:101A60004361FFF7CFBF000010B5194C23699842BE
:101A70000DD0D0E90032816813605A609A680A4438
:101A80009A60002303604FF0FF33A36110BD23462B
:101A9000026843F8102F53600022026022699A42C4
:101AA00003D1BDE8104001F0D7B9936881680B44B9
:101AB000936001F0C5F92269E1699268441AA24273
:101AC000E4D91144BDE81040091AFFF753BF00BF25
:101AD000B02500202DE9F047DFF8B88008F11007A5
:101AE0002B4ED8F8105001F0ABF9D8F81C40AA687A
:101AF000011B8A423DD81444D5E90032C8F81C4085
:101B000013605A6000232B60D8F81020B242994627
:101B100001D101F0A1F989F31188D5E903312846F3
:101B20009847302383F311886B69002BD9D001F0DB
:101B300087F96A69A0EB04094A4582460DD2022062
:101B400001F0D6F90022D8F81030B34208D151463E
:101B50002846BDE8F047FFF729BF2244121AF2E7F2
:101B600012EB090938BF4A4629463846FFF7ECFE12
:101B7000B6E7D8F81010B14208D01444211AC8F8BA
:101B80001C00A960BDE8F047FFF7F4BEBDE8F08790
:101B9000C0250020B025002000207047FEE700008F
:101BA000704700004FF0FF307047000002290CD052
:101BB000032904D00129074818BF00207047032AD1
:101BC00005D8054800EBC200704704487047002064
:101BD000704700BF5C36000818220020103600084D
:101BE00070B59AB00546084601A9144600F0BEF843
:101BF00001A8FFF7C5F8431C5B00C5E900340022CB
:101C0000237003236370C6B201AB02341046D1B215
:101C10008E4204F1020401D81AB070BD13F8011B02
:101C200004F8021C04F8010C0132F0E708B5302377
:101C300083F311880348FFF75DFA002383F31188CB
:101C400008BD00BFA028002090F8443003F01F0218
:101C5000012A07D190F845200B2A03D10023C0E9BF
:101C60000E3315E003F06003202B08D1B0F84830A4
:101C70002BB990F84520212A03D81F2A04D8FFF752
:101C800017BA222AEBD0FAE7034A82630722C2631B
:101C900003640120704700BF3822002010B50446BD
:101CA000052916D8DFE801F016150316161D302396
:101CB00083F311880E4A0121FFF7BCFA20460D4A32
:101CC0000221FFF7B7FA0C48FFF7DCF9002383F392
:101CD000118810BD302383F311880748FFF7A8F956
:101CE000F4E7302383F311880348FFF7BFF9EDE7EA
:101CF000E8350008C4350008A028002038B50B4D91
:101D00000B4C0C492A462046FFF76AFF05F1CA0230
:101D100004F108000849FFF763FF05F5CA7204F1F2
:101D200010000649BDE83840FFF75ABF40260020A2
:101D300020220020F9340008033500080E35000881
:101D400070B5044608460D46FFF71AF8C6B220469D
:101D5000013403780BB9184670BD32462946FEF7A8
:101D6000FBFF0028F3D10120F6E700002DE9F04148
:101D700005460C46FFF704F82A49C6B22846FFF785
:101D8000DFFF08B10736F6B227492846FFF7D8FF2C
:101D900008B11036F6B2632E07D8224FDFF88880DC
:101DA0002E7846B92670BDE8F08129462046BDE868
:101DB000F041FEF7C1BA252E30D107223946284618
:101DC000FEF7CAFF70B9194B224603F10C0153F814
:101DD000040B42F8040B8B42F9D11B8813800735A2
:101DE0000E34DDE7082241462846FEF7B5FFA8B9C4
:101DF0000F4B1048104EA21C197809090232415CA1
:101E000002F8041C13F8011B01F00F01B342415CFE
:101E100002F8031CF0D118340835C1E704F8016B4F
:101E20000135BDE7173500080E3500081F350008DD
:101E3000107AFF1F2E3500081C7AFF1FBFF34F8F4B
:101E4000024AD368DB03FCD4704700BF003C024069
:101E500008B5094B1B7873B9FFF7F0FF074B1A69F8
:101E6000002ABFBF064A5A6002F188325A601A68D7
:101E700022F480621A6008BD382D0020003C024028
:101E80002301674508B50B4B1B7893B9FFF7D6FFC5
:101E9000094B1A6942F000421A611A6842F48052F2
:101EA0001A601A6822F480521A601A6842F480623A
:101EB0001A6008BD382D0020003C02400B28F0B508
:101EC00015D80C4C0C49237873B90C4D0E464FF0C5
:101ED0000062013355F8047B46F8042BDBB20C2B6F
:101EE0003A44F6D10123237051F82000F0BD0020C0
:101EF000FCE700BF392D00203C2D0020783600087B
:101F0000014B53F820007047783600080C207047CA
:101F10000B2810B5044601D9002010BDFFF7CEFFF5
:101F2000064B53F824301844C21A0BB90120F4E7C9
:101F300012680132F0D1043BF6E700BF78360008A2
:101F40000B2810B5044621D8FFF778FFFFF780FF74
:101F50000F4AF323D360C300DBB243F4007343F0B2
:101F600002031361136943F480331361FFF766FFC3
:101F7000FFF7A4FF074B53F8241000F0D5F8FFF744
:101F800081FF2046BDE81040FFF7C2BF002010BD12
:101F9000003C024078360008F8B5D507144641D415
:101FA0008318B3F1016F3DD82B4B1B68DA0739D585
:101FB0002A4FFFF74DFFF323FB60FFF73FFF40F28F
:101FC0000126032C15D824F00104244D0C44401A9A
:101FD00040F20117A1422B6901EB000624D123F046
:101FE00001032B61FFF74EFF0120F8BD043C0430D4
:101FF000E7E78307E7D13B6923F440733B613B6923
:1020000033433B6151F8045B0560BFF34F8FFFF72B
:1020100015FF03689D42E9D03B6923F001033B6152
:10202000FFF730FF0020E0E723F440732B612B69BA
:102030003B432B610B883380BFF34F8FFFF7FEFECE
:10204000368831F8023BB6B2B342C3D02B6923F0D5
:1020500001032B61E4E700BF00380240003C02406E
:10206000084908B50B7828B11BB9FFF7F1FE012329
:102070000B7008BD002BFCD0BDE808400870FFF7CE
:1020800001BF00BF382D002010B50244064BD2B26C
:10209000904200D110BD441C00B253F8200041F81A
:1020A000040BE0B2F4E700BF502800400F4B30B5FE
:1020B0001C6F240407D41C6F44F400741C671C6F4D
:1020C00044F400441C670A4C236843F48073236083
:1020D0000244084BD2B2904200D130BD441C00B241
:1020E00051F8045B43F82050E0B2F4E700380240B6
:1020F000007000405028004007B5012201A90020CF
:10210000FFF7C2FF019803B05DF804FB13B5044666
:10211000FFF7F2FFA04205D0012201A9002001949F
:10212000FFF7C4FF02B010BD70470000034B1A68F0
:102130001AB9034AD2F874281A6070476C2D00202F
:102140000030024008B5FFF7F1FF024B1868C0F3FA
:10215000407008BD6C2D002070470000FEE70000B5
:102160000A4B0B480B4A90420BD30B4BDA1C121A4A
:10217000C11E22F00302994288BF00220021FEF70F
:1021800001BE53F8041B40F8041BECE718380008A4
:10219000682E0020682E0020682E002070B5D0E93F
:1021A00015439E6800224FF0FF3504EB42135101A6
:1021B000D3F800090028BEBFD3F8000940F08040E2
:1021C000C3F80009D3F8000B0028BEBFD3F8000BFA
:1021D00040F08040C3F8000B01326318B242C3F8EC
:1021E0000859C3F8085BE0D94FF00113C4F81C3854
:1021F00070BD0000890141F02001016103699B0667
:10220000FCD41220FFF722BB10B5054C2046FEF788
:10221000F1FF4FF0A0436365024BA36510BD00BF03
:10222000882D0020A836000870B50378012B0546DC
:1022300050D12A4B446D98421BD1294B5A6B42F026
:1022400080025A635A6D42F080025A655A6D5A698B
:1022500042F080025A615A6922F080025A610E21CE
:1022600043205B6900F012FC1E4BE3601E4BC4F878
:1022700000380023C4F8003EC02323606E6D4FF485
:102280000413A3633369002BFCDA012333610C20B0
:10229000FFF7DCFA3369DB07FCD41220FFF7D6FA2C
:1022A0003369002BFCDA0026A6602846FFF776FF8C
:1022B0006B68C4F81068DB68C4F81468C4F81C685C
:1022C0004BB90A4BA3614FF0FF336361A36843F03E
:1022D0000103A36070BD064BF4E700BF882D00200A
:1022E000003802404014004003002002003C30C08F
:1022F000083C30C0F8B5446D054600212046FFF784
:1023000079FFA96D00234FF001128F68C4F83438AB
:102310004FF00066C4F81C284FF0FF3004EB431266
:1023200001339F42C2F80069C2F8006BC2F8080985
:10233000C2F8080BF2D20B686A6DEB65636210237A
:102340001361166916F01006FBD11220FFF77EFA12
:10235000D4F8003823F4FE63C4F80038A36943F4CA
:10236000402343F01003A3610923C4F81038C4F8D4
:1023700014380A4BEB604FF0C043C4F8103B084BD5
:10238000C4F8003BC4F81069C4F80039EB6D03F1E0
:10239000100243F48013EA65A362F8BDB436000866
:1023A00040800010426D90F84E10D2F8003823F4AF
:1023B000FE6343EA0113C2F8003870472DE9F84381
:1023C00000EB81030C460FFA81F9D968456D0E6860
:1023D00006F00306731E022B05EB44134FF00002B8
:1023E000C3F8102B04F110024FF0010398BFB6049C
:1023F00003FA02F38A698CBF334E06F18056804699
:1024000098BF06F500466001002A39D04F8A04F1D2
:10241000580252013743AF50D5F81C281343C5F872
:102420001C382B180022C3F810294A690127631EA3
:10243000A74092B30A8A898B9208012988BF4A4330
:102440004033D8F85C1005EB8303501841EA024191
:10245000C8F85C00596028462146FFF7CBFE08EB20
:102460008900C3681B8A43EA8453483464013343B8
:102470002B51D5F81C383B43C5F81C38BDE8F88310
:1024800005EB4917D7F8002B22F40042C7F8002BC0
:10249000D5F81C2822EA0303C1E704F13F0305EB4A
:1024A00083030A4A5A6021462846FFF7A3FE05EB3C
:1024B0004913D3F8002922F40042C3F80029D5F8C3
:1024C0001C3823EA0703D7E700800010000400024D
:1024D000826D1268C265FFF761BE00005831436D1E
:1024E00049015B5813F4004004D013F4001F14BFDB
:1024F00001200220704700004831436D49015B58BC
:1025000013F4004004D013F4001F14BF0120022074
:102510007047000000EB8100C368196A0B68136004
:102520004B6853607047000000EB810330B5DD68F5
:10253000AA691368D36019B9402B84BF4023136084
:102540006B8A1468426D1C44013CB4FBF3F4634392
:10255000033323F0030302EB411043EAC44343F087
:10256000C043C0F8103B2B6803F00303012B09B2F2
:102570000ED1D2F8083802EB411013F4807FD0F866
:10258000003B14BF43F0805343F00053C0F8003BBE
:1025900002EB4112D2F8003B43F00443C2F8003B87
:1025A00030BD00002DE9F041234D6E6D06EB401368
:1025B0000446D3F8087BC3F8087B38070AD5D6F859
:1025C0001438190706D505EB84032146DB68284635
:1025D0005B689847FA071FD5D6F81438DB071BD578
:1025E00005EB8403D9688B69C4B9488A5A68B2FB81
:1025F000F0F600FB16228AB91868DA6890420DD20C
:10260000121AC3E90024302383F311880A482146B3
:10261000FFF78AFF84F31188BDE8F0816B890122FE
:10262000A24023EA02036B81CB68002BF4D0214641
:102630000148BDE8F0411847882D002000EB8103D8
:1026400070B5DD68436D6C692668E6604A014EBB73
:102650001A444FF40020C2F810092A6802F003025D
:10266000012A0AB20ED1D3F8080803EB421410F481
:10267000807FD4F8000914BF40F0805040F0005033
:10268000C4F8000903EB4212D2F8000940F00440FC
:10269000C2F80009D3F8340801228A400243C3F883
:1026A000342870BD19B9402E84BF402020602068B6
:1026B0002E8A8419013CB4FBF6F440EAC44040F091
:1026C00000501A44C7E700002DE9F8433B4D6E6DFA
:1026D00006EB40130446D3F80889C3F8088918F0BC
:1026E000010F4FEA40171AD0D6F81038DB0716D57D
:1026F00005EB8003D9684B691868DA68904230D2DC
:10270000121A4FF000091A60C3F80490302383F3C3
:10271000118821462846FFF791FF89F3118818F0A8
:10272000800F1CD0D6F834380126A640334216D08C
:1027300005EB84036D6DD3F80CC0DCF81420013474
:10274000E4B2D2F800E005EB04342F44516871453F
:1027500014D3D5F8343823EA0603C5F83438BDE875
:10276000F8832B890122A24023EA02032B818B6884
:10277000002BD4D0214628469847D0E7BCF810005B
:10278000AEEB0103834228BF0346D7F8180980B295
:10279000B3EB800FE3D89068A0F1040959F8048FD7
:1027A000C4F80080A0EB09089844B8F1040FF5D8EC
:1027B0001844194490605160C8E700BF882D00207C
:1027C0002DE9F0479C4C656D6E69AB691E4016F4AF
:1027D00080586E6106D02046FEF774FDBDE8F047D4
:1027E00000F032BC002E12DAD5F8003E92489B076A
:1027F0001EBFD5F8003E23F00303C5F8003ED5F810
:10280000043823F00103C5F80438FEF785FD3705C9
:1028100005D58948FFF7C2FC8748FEF76BFDB00479
:102820000CD5D5F8083813F0060FEB6823F4705375
:102830000CBF43F4105343F4A053EB6031071BD596
:102840006368DB681BB9AB6923F00803AB612378CD
:10285000052B0CD1D5F8003E77489A071EBFD5F856
:10286000003E23F00303C5F8003EFEF755FD636804
:10287000DB680BB170489847F30232D50021D4F8D9
:1028800054900F4609EB4713D3F8002902F4402275
:10289000B2F5802F1ED1D3F80029002A1ADAD3F816
:1028A000002942F09042C3F80029D3F80029002AF9
:1028B000FBDB606DFFF79EFC23890122BA4023EA0F
:1028C0000203238104EB8703DB689B6813B15A483A
:1028D00039469847A36D01379B68FFB29F4239463E
:1028E000D0D9B70225D5D4F8549000274FF0010A6B
:1028F00009EB4712D2F8003B03F44023B3F5802FD5
:1029000011D1D2F8003B002B0DDA63890AFA07F2E5
:1029100023EA0203638104EB8703DB68DB6813B1FE
:10292000454839469847A36D01379B68FFB29F42DF
:10293000DED9F00616D5676D3A6AC2F30A1002F0C6
:102940000F0302F4F012B2F5802F4AD0B2F5402FF7
:1029500008D104EB83030022DB681B6A07F580576C
:10296000904230D13003D5F8184813D5E10302D591
:102970000020FFF717FEA20302D50120FFF712FE89
:10298000630302D50220FFF70DFE270302D50320C3
:10299000FFF708FE75037FF521AFE00702D50020A1
:1029A000FFF792FEA10702D50120FFF78DFE620717
:1029B00002D50220FFF788FE23077FF50FAF032023
:1029C000FFF782FE0AE7910708BFD7F80080072AC1
:1029D00098BF03F8018B02F1010298BF4FEA182853
:1029E000BEE7023304EB830207F580575268D2F842
:1029F00018C0DCF80820DCE9001CA1EB0C0C00215D
:102A000088420AD104EB830463689B699A68024494
:102A10009A605A6802445A60A4E711F0030F08BF95
:102A2000D7F800808C4588BF02F8018B01F10101C5
:102A300088BF4FEA1828E3E7882D0020436D03EB99
:102A40004111D1F8003B43F40013C1F8003B70473B
:102A5000436D03EB4111D1F8003943F40013C1F881
:102A600000397047436D03EB4111D1F8003B23F46B
:102A70000013C1F8003B7047436D03EB4111D1F8DF
:102A8000003923F40013C1F80039704700F16043A6
:102A900003F561430901C9B283F80013012200F074
:102AA0001F039A4043099B0003F1604303F5614310
:102AB000C3F880211A60704730B5039C017204335B
:102AC00004FB0325C0E90653049B03630021059B17
:102AD000C160C0E90000C0E90422C0E90842C0E9C1
:102AE0000A11436330BD0000416A0022C0E90411AD
:102AF000C0E90A22C2606FF00101FEF717BF0000B3
:102B0000D0E90432934201D1C2680AB9181D704756
:102B10000020704703691960C2680132C260C2694F
:102B2000134482690361934224BF436A0361002115
:102B3000FEF7F0BE38B504460D46E3683BB1626966
:102B4000131D1268A3621344E362002007E0237A96
:102B500033B929462046FEF7CDFE0028EDDA38BD10
:102B60006FF00100FBE70000C368C269013BC3606E
:102B70004369134482694361934224BF436A4361BA
:102B800000238362036B03B11847704770B530238D
:102B9000044683F31188866A3EB9FFF7CBFF0546EA
:102BA00018B186F31188284670BDA36AE26A13F84B
:102BB000015BA362934202D32046FFF7D5FF0023B7
:102BC00083F31188EFE700002DE9F84F04460F4624
:102BD00091469A464FF0300888F311880026B34694
:102BE000A56A4DB951462046FFF7A4FF20B185F3F1
:102BF00011883046BDE8F88FD4E90A15A9EB060321
:102C00006D1A9D4228BF1D46402D1AD93B4601F141
:102C1000400251F8040B43F8040B9142F9D1A36A26
:102C2000403740334036E26AA3629A4202D82046D7
:102C3000FFF79AFF8BF311884E45DAD288F311889B
:102C4000CEE738462A46FEF77DF8A36A2F442B4488
:102C50002E44E8E710B5029C0172043303FB042103
:102C6000C0E906130023C0E90A33039B0363049BF6
:102C7000C460C0E90000C0E90422C0E9084243631F
:102C800010BD0000026AC260426AC0E9042200224C
:102C9000C0E90A226FF00101FEF748BE0346D0E901
:102CA0000420824201D1DB681BB950F8043B0B6061
:102CB000704700231846FAE7C368C2690133C3604E
:102CC0004369134482694361934224BF436A436169
:102CD0000021FEF71FBE000038B504460D46E3682C
:102CE0003BB123691A1DA262E2691344E36200202A
:102CF00007E0237A33B929462046FEF7FBFD00287A
:102D0000EDDA38BD6FF00100FBE7000003691960E0
:102D1000C268013AC260C269134482690361934286
:102D200024BF436A036100238362036B03B1184726
:102D30007047000070B530230D460446114683F3FA
:102D40001188866A2EB9FFF7C7FF10B186F3118884
:102D500070BDA36A1D70A36AE26A01339342A36245
:102D600004D3E16920460439FFF7D0FF002080F347
:102D70001188EDE72DE9F84F05460C4691469A4635
:102D80004FF0300888F311880027BB46AE6A4EB971
:102D900051462846FFF7A0FF20B186F31188384638
:102DA000BDE8F88FD5E90A06A9EB0703361A9E425B
:102DB00028BF1E46402E1AD904F1400354F8042BB4
:102DC00040F8042B9C42F9D1AB6A40374033EA6AA1
:102DD000AB629A4204D8E96928460439FFF796FFA6
:102DE0008BF311884F45DAD288F31188CEE721465C
:102DF0003246FDF7A7FFAB6A344433443744E6E775
:102E0000D0E904218A42034616D1C068A8B1986A65
:102E100098B10438801A10D01060D9680139D9608F
:102E2000D9690A4499691A618A4224BF5A6A1A61A7
:102E300000229A62012070470020704700F02EB9EE
:102E40004FF08043586A70474FF080430022586328
:102E50001A610222DA6070474FF080430022DA6084
:102E6000704700004FF0804358637047FEE7000052
:102E700070B51B4B01630025044686B085620E4683
:102E8000586000F0BDF804F11003C4E904334FF0BA
:102E9000FF33C4E90635C4E90044A560E562FFF7E5
:102EA000CFFF2B460246C4E9082304F134010D4A42
:102EB000256580232046FEF7D3FC0123E0600A4A03
:102EC0000375009272680192B268CDE90223074B44
:102ED0006846CDE90435FEF7EBFC06B070BD00BFD7
:102EE000082600203F350008443500086D2E0008F4
:102EF000024AD36A0343D362704700BFB025002063
:102F00004B6843608B688360CB68C3600B69436127
:102F10004B6903628B6943620B6803607047000072
:102F200008B5254B25481A6940F2FF110A431A617A
:102F30001A696FF308021A611A691A6B0A431A6355
:102F40001A6D0A431A651E4A1B6D1146FFF7D8FF1A
:102F500002F11C0100F58060FFF7D2FF02F1380199
:102F600000F58060FFF7CCFF02F1540100F58060AE
:102F7000FFF7C6FF02F1700100F58060FFF7C0FFA8
:102F800002F18C0100F58060FFF7BAFF02F1A801A1
:102F900000F58060FFF7B4FF02F1C40100F5806026
:102FA000FFF7AEFF02F1E00100F58060FFF7A8FF38
:102FB000BDE8084000F0EEB80038024000000240D2
:102FC000D836000808B500F059FAFEF727FCFFF7DD
:102FD000ADF8BDE80840FEF791BE00007047000064
:102FE000EFF3098305494A6B22F001024A63683313
:102FF00083F30988002383F31188704700EF00E012
:10300000302080F3118862B60C4B0D4AD96821F448
:10301000E0610904090C0A43DA60D3F8FC2009498D
:1030200042F08072C3F8FC200A6842F001020A6094
:103030002022DA7783F82200704700BF00ED00E01D
:103040000003FA05001000E010B5302383F3118867
:103050000E4B5B6813F4006314D0F1EE103AEFF3FB
:103060000984683C4FF08073E361094BDB6B236696
:1030700084F30988FEF7B2FB10B1064BA36110BDC3
:10308000054BFBE783F31188F9E700BF00ED00E093
:1030900000EF00E02F030008320300080F4B1A6C0A
:1030A00042F001021A641A6E42F001021A660C4ADA
:1030B0001B6E936843F0010393604FF080435322EB
:1030C0009A624FF0FF32DA6200229A615A63DA6044
:1030D0005A6001225A611A60704700BF00380240EE
:1030E000002004E04FF0804208B51169D3680B401E
:1030F000D9B2C9439B07116107D5302383F31188E7
:10310000FEF7A2FB002383F3118808BD1F4B1A6949
:103110006FEAC2526FEAD2521A611A69C2F3080208
:103120001A614FF0FF301A695A69586100215A69D3
:1031300059615A691A6A62F080521A621A6A02F078
:1031400080521A621A6A5A6A58625A6A59625A6AEC
:103150001A6C42F080521A641A6E42F080521A665B
:103160001A6E0B4A106840F480701060186F00F4FB
:103170004070B0F5007F1EBF4FF4803018671967AC
:10318000536823F40073536000F054B900380240D0
:1031900000700040334B4FF080521A64324A4FF4B3
:1031A000404111601A6842F001021A601A689107E2
:1031B000FCD59A6822F003029A602A4B9A6812F0B2
:1031C0000C02FBD1196801F0F90119609A601A68C4
:1031D00042F480321A601A689203FCD55A6F42F0AA
:1031E00001025A671F4B5A6F9007FCD51F4A5A605D
:1031F0001A6842F080721A601B4A53685904FCD561
:10320000184B1A689201FCD5194A9A60194B1A6832
:10321000194B9A42194B21D1194A1168194A914206
:103220001CD140F205121A60144A136803F00F0310
:10323000052BFAD10B4B9A6842F002029A609A6809
:1032400002F00C02082AFAD15A6C42F480425A6405
:103250005A6E42F480425A665B6E704740F20572C5
:10326000E1E700BF0038024000700040085440070A
:1032700000948838002004E011640020003C0240E3
:1032800000ED00E041C20F41074A08B5536903F061
:103290000103536123B1054A13680BB15068984785
:1032A000BDE80840FFF7D0BE003C0140E82D0020FB
:1032B000074A08B5536903F00203536123B1054A75
:1032C00093680BB1D0689847BDE80840FFF7BCBED3
:1032D000003C0140E82D0020074A08B5536903F07F
:1032E0000403536123B1054A13690BB15069984730
:1032F000BDE80840FFF7A8BE003C0140E82D0020D3
:10330000074A08B5536903F00803536123B1054A1E
:1033100093690BB1D0699847BDE80840FFF794BEA8
:10332000003C0140E82D0020074A08B5536903F02E
:103330001003536123B1054A136A0BB1506A9847D1
:10334000BDE80840FFF780BE003C0140E82D0020AA
:10335000164B10B55C6904F478725A61A30604D563
:10336000134A936A0BB1D06A9847600604D5104A95
:10337000136B0BB1506B9847210604D50C4A936B25
:103380000BB1D06B9847E20504D5094A136C0BB119
:10339000506C9847A30504D5054A936C0BB1D06CCB
:1033A0009847BDE81040FFF74FBE00BF003C01400A
:1033B000E82D0020194B10B55C6904F47C425A6179
:1033C000620504D5164A136D0BB1506D984723055D
:1033D00004D5134A936D0BB1D06D9847E00404D522
:1033E0000F4A136E0BB1506E9847A10404D50C4AD6
:1033F000936E0BB1D06E9847620404D5084A136FE0
:103400000BB1506F9847230404D5054A936F0BB155
:10341000D06F9847BDE81040FFF716BE003C014052
:10342000E82D002008B5FFF75DFEBDE80840FFF776
:103430000BBE0000062108B50846FFF727FB062152
:103440000720FFF723FB06210820FFF71FFB0621BB
:103450000920FFF71BFB06210A20FFF717FB0621B7
:103460001720FFF713FB06212820FFF70FFBBDE80D
:10347000084007211C20FFF709BB000008B5FFF733
:1034800045FE00F00BF8FDF7B3FEFDF789FDFFF7F1
:10349000A5FDBDE80840FFF7D1BC00000023054AA8
:1034A00019460133102BC2E9001102F10802F8D1CC
:1034B000704700BFE82D00200120330000104100BC
:1034C00001105A00031059000710310053544D33B6
:1034D00032463F3F3F0053544D333246343078003C
:1034E00053544D3332463432780053544D333246C0
:1034F0003434365858006330004172647550696C3A
:103500006F740025424F415244252D424C002553F3
:10351000455249414C250025424F41524425005314
:10352000796E65726475696E6F463430350030317E
:103530003233343536373839414243444546006DDD
:1035400061696E0069646C650000000000000000A5
:10355000CC34000813040000D6340008190400001D
:10356000E034000821040000EA34000800000000F4
:103570001D0F0008090F0008450F0008310F000853
:103580003D0F0008290F0008150F0008010F000863
:10359000510F0008010000000000000000000000C2
:1035A000F6340008A0230020B0250020882D00203C
:1035B000010102009D1C0008AD1B0008491C000809
:1035C0002D1C00080300000000000000ED110008A1
:1035D0000000000010000000102600200000000085
:1035E00001000000000000000200000000000000D8
:1035F00041110008A91100084000400030260020B9
:10360000202600200200000000000000040309043E
:10361000430000001836000809024300020100C000
:103620003209040000010202010005240010010516
:10363000240100010424020205240600010705827A
:10364000030800FF09040100020A00000007050149
:103650000240000007058102400000001200000047
:10366000643600081201100102000040091241579F
:1036700000020102030100000040000000400000C1
:1036800000400000004000000000010000000200B7
:103690000000020000000200000002000000020022
:1036A0000000020000000200800000004001000055
:1036B000030000000000000031130008E9150008B5
:1036C0009516000840004000782D0020782D00203D
:1036D00001000000702D0020000180160000000095
:1036E000AAAAAAAA00010000FF9F00000000000093
:1036F00000A00A000010000100000000AAAAAAAA67
:1037000000100001FFFF00000000000000000000AA
:103710000000000000000000AAAAAAAA0000000001
:10372000FFFF00000000000000000000000000009B
:1037300000000000AAAAAAAA00000000FFFF0000E3
:103740000000000000000000000000000000000079
:10375000AAAAAAAA00000000FFFF000000000000C3
:10376000000000000000000000000000AAAAAAAAB1
:1037700000000000FFFF000000000000000000004B
:103780000000000000000000AAAAAAAA0000000091
:10379000FFFF00000000000000000000000000002B
:1037A000000000000A00000000000000030000000C
:1037B0000000000000000000000000000000000009
:1037C00000000000000000000000000000000000F9
:1037D0000000000000000000C81B00000000000006
:1037E00000000F0000000000FF009600000000082D
:1037F000040000000C36000800000000000000007B
:1038000000000000000000000000000000000000B8
:103810000096000000000800FFFFFFFFFFFFFFFF12
:10382000FFFFFFFFFFFFFFFFFFFFFFFFFFFFFFFFA8
:10383000FFFFFFFFFFFFFFFFFFFFFFFFFFFFFFFF98
:10384000FFFFFFFFFFFFFFFFFFFFFFFFFFFFFFFF88
:10385000FFFFFFFFFFFFFFFFFFFFFFFFFFFFFFFF78
:020000040801F1
:10000000000600208512010805130A0861120A087B
:10001000CD120A0861120A0899120A08871201080B
:10002000871201088712010887120108AD000C0829
:100030008712010887120108871201088712010838
:100040008712010887120108871201088712010828
:10005000871201088712010895120C08BD120C08BE
:10006000E5120C080D130C0835130C0815BD0B0810
:100070003DBD0B0869BD0B0895BD0B08C1BD0B0844
:10008000E9BD0B0815BE0B0899BC0B0887120108C7
:100090008712010887120108871201085D130C08F6
:1000A00081140C0895140C08A9140C08AD140C0844
:1000B000B1140C08C5140C08D9140C0887120108D7
:1000C00087120108A5C30B084DC50B08871201084C
:1000D0008712010831140C0845140C088712010816
:1000E000C1130C088712010887120108FD140C08BF
:1000F00001150C0815150C0819150C0841BE0B0844
:100100008712010887120108ED140C0887120108F4
:1001100059140C0887120108871201088712010878
:100120006DBE0B0895BE0B08C1BE0B08EDBE0B08DB
:1001300019BF0B08871201088712010887120108EE
:10014000871201088712010887120108D1070C08DD
:1001500041BF0B086DBF0B0899BF0B086D140C084D
:100160008712010887120108871201088712010807
:1001700087120108871201088712010887120108F7
:1001800087120108871201088712010887120108E7
:1001900087120108871201088712010887120108D7
:1001A00087120108871201088712010887120108C7
:1001B00087120108871201088712010887120108B7
:1001C00087120108871201088712010887120108A7
:1001D0008712010887120108871201088712010897
:1001E00081C20108FDEF0108A1730208C1C802081D
:1001F000814D0308FDBE04087942060889480608B7
:1002000039B20608EDFA0608C9020708FD05070815
:10021000D564070865820708110C0808A57008084E
:10022000D90B0A08D1E90A0895480B08E16C0B08BC
:1002300071770B0815A60B08C5AB0B080000000072
:1002400081F0004102E000BF83F0004330B54FEA87
:1002500041044FEA430594EA050F08BF90EA020FF4
:100260001FBF54EA000C55EA020C7FEA645C7FEA87
:10027000655C00F0E2804FEA5454D4EB5555B8BFAA
:100280006D420CDD2C4480EA020281EA030382EA1B
:10029000000083EA010180EA020281EA0303362DAD
:1002A00088BF30BD11F0004F4FEA01314FF4801C80
:1002B0004CEA113102D0404261EB410113F0004F92
:1002C0004FEA03334CEA133302D0524263EB430349
:1002D00094EA050F00F0A780A4F10104D5F1200EE7
:1002E0000DDB02FA0EFC22FA05F2801841F1000142
:1002F00003FA0EF2801843FA05F359410EE0A5F116
:1003000020050EF1200E012A03FA0EFC28BF4CF046
:10031000020C43FA05F3C01851EBE37101F00045FC
:1003200007D54FF0000EDCF1000C7EEB00006EEB09
:100330000101B1F5801F1BD3B1F5001F0CD3490893
:100340005FEA30004FEA3C0C04F101044FEA4452EA
:1003500012F5800F80F09A80BCF1004F08BF5FEA71
:10036000500C50F1000041EB045141EA050130BD51
:100370005FEA4C0C404141EB0101013C28BFB1F563
:10038000801FE9D291F0000F04BF01460020B1FAAE
:1003900081F308BF2033A3F10B03B3F120020CDA81
:1003A0000C3208DD02F1140CC2F10C0201FA0CF05F
:1003B00021FA02F10CE002F11402D8BFC2F1200CC4
:1003C00001FA02F120FA0CFCDCBF41EA0C0190407A
:1003D000E41AA2BF01EB0451294330BD6FEA0404C3
:1003E0001F3C1CDA0C340EDC04F11404C4F12002AE
:1003F00020FA04F001FA02F340EA030021FA04F3C0
:1004000045EA030130BDC4F10C04C4F1200220FA16
:1004100002F001FA04F340EA0300294630BD21FA54
:1004200004F0294630BD94F0000F83F4801306BF1A
:1004300081F480110134013D4EE77FEA645C18BF0E
:100440007FEA655C29D094EA050F08BF90EA020FA5
:1004500005D054EA000C04BF1946104630BD91EA9D
:10046000030F1EBF0021002030BD5FEA545C05D1A0
:100470004000494128BF41F0004130BD14F58004DF
:100480003CBF01F5801130BD01F0004545F0FE4153
:1004900041F470014FF0000030BD7FEA645C1ABF88
:1004A000194610467FEA655C1CBF0B46024650EABF
:1004B000013406BF52EA033591EA030F41F40021EB
:1004C00030BD00BF90F0000F04BF0021704730B571
:1004D0004FF4806404F132044FF000054FF0000146
:1004E00050E700BF90F0000F04BF0021704730B507
:1004F0004FF4806404F1320410F0004548BF4042DC
:100500004FF000013EE700BF42004FEAE2014FEA30
:1005100031014FEA02701FBF12F07F4393F07F4F0B
:1005200081F06051704732F07F4208BF704793F00E
:100530007F4F04BF41F40021704730B54FF4607421
:1005400001F0004521F000411CE700BF50EA010224
:1005500008BF704730B54FF000050AE050EA0102CD
:1005600008BF704730B511F0004502D5404261EB3D
:1005700041014FF4806404F132045FEA915C3FF47E
:10058000D8AE4FF003025FEADC0C18BF03325FEA1B
:10059000DC0C18BF033202EBDC02C2F1200300FACC
:1005A00003FC20FA02F001FA03FE40EA0E0021FAF1
:1005B00002F11444BDE600BF70B54FF0FF0C4CF4DF
:1005C000E06C1CEA11541DBF1CEA135594EA0C0F91
:1005D00095EA0C0F00F0DEF82C4481EA030621EACC
:1005E0004C5123EA4C5350EA013518BF52EA033507
:1005F00041F4801143F4801338D0A0FB02CE4FF0B9
:100600000005E1FB02E506F00042E0FB03E54FF0E8
:100610000006E1FB03569CF0000F18BF4EF0010EE0
:10062000A4F1FF04B6F5007F64F5407404D25FEADC
:100630004E0E6D4146EB060642EAC62141EA55518F
:100640004FEAC52040EA5E504FEACE2EB4F1FD0CD1
:1006500088BFBCF5E06F1ED8BEF1004F08BF5FEA4F
:10066000500E50F1000041EB045170BD06F0004601
:1006700046EA010140EA020081EA0301B4EB5C04AE
:10068000C2BFD4EB0C0541EA045170BD41F48011A6
:100690004FF0000E013C00F3AB8014F1360FDEBFCB
:1006A000002001F0004170BDC4F10004203C35DAA7
:1006B0000C341BDC04F11404C4F1200500FA05F32A
:1006C00020FA04F001FA05F240EA020001F00042CB
:1006D00021F0004110EBD37021FA04F642EB060141
:1006E0005EEA430E08BF20EAD37070BDC4F10C046B
:1006F000C4F1200500FA04F320FA05F001FA04F22F
:1007000040EA020001F0004110EBD37041F100011A
:100710005EEA430E08BF20EAD37070BDC4F1200525
:1007200000FA05F24EEA020E20FA04F301FA05F28D
:1007300043EA020321FA04F001F0004121FA04F235
:1007400020EA020000EBD3705EEA430E08BF20EA05
:10075000D37070BD94F0000F0FD101F0004640003F
:1007600041EB010111F4801F08BF013CF7D041EAC1
:10077000060195F0000F18BF704703F000465200C5
:1007800043EB030313F4801F08BF013DF7D043EA96
:100790000603704794EA0C0F0CEA135518BF95EA4C
:1007A0000C0F0CD050EA410618BF52EA4306D1D1D3
:1007B00081EA030101F000414FF0000070BD50EAF2
:1007C000410606BF1046194652EA430619D094EA7C
:1007D0000C0F02D150EA013613D195EA0C0F05D166
:1007E00052EA03361CBF104619460AD181EA0301BA
:1007F00001F0004141F0FE4141F470014FF0000072
:1008000070BD41F0FE4141F4780170BD70B54FF00C
:10081000FF0C4CF4E06C1CEA11541DBF1CEA13558C
:1008200094EA0C0F95EA0C0F00F0A7F8A4EB05046E
:1008300081EA030E52EA03354FEA013100F0888065
:100840004FEA03334FF0805545EA131343EA12632E
:100850004FEA022245EA111545EA10654FEA0026E3
:100860000EF000419D4208BF964244F1FD0404F59C
:10087000407402D25B084FEA3202B61A65EB0305F8
:100880005B084FEA32024FF480104FF4002CB6EBB5
:10089000020E75EB030E22BFB61A754640EA0C0035
:1008A0005B084FEA3202B6EB020E75EB030E22BF75
:1008B000B61A754640EA5C005B084FEA3202B6EBB6
:1008C000020E75EB030E22BFB61A754640EA9C0075
:1008D0005B084FEA3202B6EB020E75EB030E22BF45
:1008E000B61A754640EADC0055EA060E18D04FEA03
:1008F000051545EA16754FEA06164FEAC30343EAA3
:1009000052734FEAC2025FEA1C1CC0D111F4801F6F
:100910000BD141EA00014FF000004FF0004CB6E768
:1009200011F4801F04BF01430020B4F1FD0C88BF07
:10093000BCF5E06F3FF6AFAEB5EB030C04BFB6EB12
:10094000020C5FEA500C50F1000041EB045170BD05
:100950000EF0004E4EEA113114EB5C04C2BFD4EB32
:100960000C0541EA045170BD41F480114FF0000EB6
:10097000013C90E645EA060E8DE60CEA135594EA32
:100980000C0F08BF95EA0C0F3FF43BAF94EA0C0F35
:100990000AD150EA01347FF434AF95EA0C0F7FF4AA
:1009A00025AF104619462CE795EA0C0F06D152EAFE
:1009B00003353FF4FDAE1046194622E750EA4106E2
:1009C00018BF52EA43067FF4C5AE50EA41047FF4F3
:1009D0000DAF52EA43057FF4EBAE12E74FF0FF3C58
:1009E00006E000BF4FF0010C02E000BF4FF0010C29
:1009F0004DF804CD4FEA410C7FEA6C5C4FEA430CA2
:100A000018BF7FEA6C5C1BD001B050EA410C0CBFF0
:100A100052EA430C91EA030F02BF90EA020F002052
:100A2000704710F1000F91EA030F58BF994208BFB9
:100A300090422CBFD8176FEAE37040F00100704776
:100A40004FEA410C7FEA6C5C02D150EA013C07D1CD
:100A50004FEA430C7FEA6C5CD6D152EA033CD3D018
:100A60005DF8040B704700BF8446104662468C4612
:100A70001946634600E000BF01B5FFF7B7FF002845
:100A800048BF10F1000F01BD4DF808EDFFF7F4FF6E
:100A90000CBF012000205DF808FB00BF4DF808EDF9
:100AA000FFF7EAFF34BF012000205DF808FB00BF1C
:100AB0004DF808EDFFF7E0FF94BF012000205DF83E
:100AC00008FB00BF4DF808EDFFF7CEFF94BF0120F3
:100AD00000205DF808FB00BF4DF808EDFFF7C4FFEC
:100AE00034BF012000205DF808FB00BF4FEA410C35
:100AF0007FEA6C5C02D150EA013C0AD14FEA430C18
:100B00007FEA6C5C02D152EA033C02D14FF0000054
:100B100070474FF0010070474FEA410212F5001292
:100B200015D211D56FF47873B3EB625212D94FEA34
:100B3000C12343F0004343EA505311F0004F23FA1E
:100B400002F018BF404270474FF00000704750EA73
:100B5000013005D111F0004008BF6FF00040704730
:100B60004FF00000704700BF4A0011D212F500128A
:100B700011D20DD56FF47873B3EB62520ED44FEAF5
:100B8000C12343F0004343EA505323FA02F0704775
:100B90004FF00000704750EA013002D14FF0FF30B3
:100BA00070474FF0000070474FEA4102B2F1E04356
:100BB00024BFB3F5001CDCF1FE5C0DD901F0004C44
:100BC0004FEAC0024CEA5070B2F1004F40EB830094
:100BD00008BF20F00100704711F0804F21D113F1C0
:100BE0003872BCBF01F00040704741F480114FEAF9
:100BF0005252C2F11802C2F1200C10FA0CF320FA82
:100C000002F018BF40F001004FEAC1234FEAD3239E
:100C100003FA0CFC40EA0C0023FA02F34FEA430308
:100C2000CCE77FEA625307D150EA01331EBF4FF091
:100C3000FE4040F44000704701F0004040F0FE40AC
:100C400040F40000704700BF80F0004002E000BFA9
:100C500081F0004142001FBF5FEA410392EA030FA7
:100C60007FEA226C7FEA236C6AD04FEA1262D2EBF1
:100C70001363C1BFD218414048404140B8BF5B42F6
:100C8000192B88BF704710F0004F40F4000020F08F
:100C90007F4018BF404211F0004F41F4000121F0A5
:100CA0007F4118BF494292EA030F3FD0A2F10102EF
:100CB00041FA03FC10EB0C00C3F1200301FA03F12D
:100CC00000F0004302D5494260EB4000B0F5000F50
:100CD00013D3B0F1807F06D340084FEA310102F10F
:100CE0000102FE2A51D2B1F1004F40EBC25008BFC1
:100CF00020F0010040EA03007047490040EB00008B
:100D0000013A28BFB0F5000FEDD2B0FA80FCACF18B
:100D1000080CB2EB0C0200FA0CF0AABF00EBC250B8
:100D200052421843BCBFD0401843704792F0000FA6
:100D300081F4000106BF80F400000132013BB5E7F9
:100D40004FEA41037FEA226C18BF7FEA236C21D06F
:100D500092EA030F04D092F0000F08BF08467047D4
:100D600090EA010F1CBF0020704712F07F4F04D1A2
:100D7000400028BF40F00040704712F100723CBFB5
:100D800000F50000704700F0004343F0FE4040F4DF
:100D9000000070477FEA226216BF08467FEA23639D
:100DA0000146420206BF5FEA412390EA010F40F488
:100DB000800070474FF0000304E000BF10F00043D4
:100DC00048BF40425FEA000C08BF704743F09643BB
:100DD00001464FF000001CE050EA010208BF7047D6
:100DE0004FF000030AE000BF50EA010208BF70475D
:100DF00011F0004302D5404261EB41015FEA010C72
:100E000002BF84460146002043F0B64308BFA3F169
:100E10008053A3F50003BCFA8CF2083AA3EBC2534B
:100E200010DB01FA02FC634400FA02FCC2F120026A
:100E3000BCF1004F20FA02F243EB020008BF20F0A1
:100E40000100704702F1200201FA02FCC2F1200207
:100E500050EA4C0021FA02F243EB020008BF20EAFC
:100E6000DC7070477BB972B90029BEBF00204FF01B
:100E7000004106E008BF00281CBF6FF000414FF0A2
:100E8000FF3000F0FDB9ADF1080C6DE904CE00298A
:100E900009DB002B1ADB00F095F8DDF804E0DDE952
:100EA000022304B07047404261EB4101002B1BDB81
:100EB00000F088F8DDF804E0DDE9022304B04042E8
:100EC00061EB4101524263EB43037047524263EBD3
:100ED000430300F077F8DDF804E0DDE9022304B015
:100EE000404261EB41017047524263EB430300F023
:100EF00069F8DDF804E0DDE9022304B0524263EB57
:100F00004303704753B94AB9002908BF00281CBFE2
:100F10004FF0FF314FF0FF3000F0B2B9ADF1080CE7
:100F20006DE904CE00F04EF8DDF804E0DDE90223BF
:100F300004B07047430803F05533C01A830803F028
:100F4000333300F03330184400EB101000F00F3052
:100F500000EB002000EB0040000E704707EE900A07
:100F6000F5EEC07AF1EE10FA01D400F00BB8F1EE14
:100F7000677A08B517EE900A00F004F8404261EB7A
:100F8000410108BDD0B5FFF7BFFA0C4B0022064661
:100F90000F46FFF711FBFFF7E7FD0446FFF792FA54
:100FA000074B0022FFF708FB02460B463046394646
:100FB000FFF74AF9FFF7D8FD2146D0BD0000F03D0C
:100FC0000000F0412DE9F047089D0E4604460F460B
:100FD000002B4AD194468C45B2FA82F260D942B1D4
:100FE000C2F12003974020FA03F30CFA02FC1F43DE
:100FF00094404FEA1C4E1FFA8CF6B7FBFEF1230C0F
:101000000EFB117743EA074301FB06F098420AD929
:101010001CEB030301F1FF3780F01581984240F289
:101020001281023963441B1AA4B2B3FBFEF00EFB1B
:10103000103344EA034400FB06F6A6420AD91CEB2F
:10104000040400F1FF3380F00081A64240F2FD80ED
:101050006444023840EA0140A41B00211DB1D44081
:101060000023C5E90043BDE8F0878B4205D90DB1E7
:10107000C5E9000100210846F5E7B3FA83F100292C
:1010800046D1B34202D3824200F2F580841A66EB65
:10109000030201201746002DE5D0C5E90047E2E72D
:1010A000002A40F09380A1EB0C034FEA1C471FFA83
:1010B0008CFE0121B3FBF7F607FB1630230C43EA45
:1010C00000430EFB06F0984208D91CEB030306F11F
:1010D000FF3802D2984200F2D08046461B1AA4B2D2
:1010E000B3FBF7F007FB103344EA03440EFB00FEAA
:1010F000A64508D91CEB040400F1FF3302D2A64533
:1011000000F2B6801846A4EB0E0440EA0640A5E7BC
:10111000C1F120078B4022FA07FC4CEA030C06FAC7
:1011200001FE20FA07F426FA07F344EA0E0400FA57
:1011300001F84FEA1C404FEA1449B3FBF0FE1FFAD6
:101140008CF600FB1E3349EA03430EFB06F9994572
:1011500002FA01F20BD91CEB03030EF1FF3A80F007
:101160008580994540F28280AEF1020E6344A3EB84
:101170000909A4B2B9FBF0F300FB139944EA09444E
:1011800003FB06F6A64208D91CEB040403F1FF306A
:1011900068D2A64266D9023B644443EA0E40A41BCF
:1011A000A0FB02E6B4427346B14652D34FD05DB1C4
:1011B000B8EB030264EB090404FA07F722FA01F31F
:1011C0001F43CC40C5E9007400214CE7C2F1200167
:1011D00020FA01F30CFA02FC26FA01F1964033439F
:1011E0004FEA1C471FFA8CFEB1FBF7F007FB101605
:1011F000190C41EA064100FB0EF68E4204FA02F495
:1012000008D91CEB010100F1FF382DD28E422BD9F9
:1012100002386144891B9BB2B1FBF7F607FB16113C
:1012200043EA014306FB0EF1994208D91CEB030384
:1012300006F1FF3814D2994212D9023E63445B1A78
:1012400046EA004136E73946EDE6184602E7F04542
:10125000ADD2BEEB020366EB0C060138B146A6E741
:101260004646ECE7034698E74046D3E7D6467EE796
:101270006444023847E708460DE7023E63442DE721
:10128000704700BF02E000F000F8FEE772B6374892
:1012900080F30888364880F3098836483649086064
:1012A00040F20000CCF200004EF63471CEF20001A4
:1012B0000860BFF34F8FBFF36F8F40F20000C0F2A2
:1012C000F0004EF68851CEF200010860BFF34F8F58
:1012D000BFF36F8F4FF00000E1EE100A4EF63C7145
:1012E000CEF200010860062080F31488BFF36F8FF0
:1012F000AEF03AFFAFF06CFE4FF055301F491B4A7D
:1013000091423CBF41F8040BFAE71D49184A91424B
:101310003CBF41F8040BFAE71A491B4A1B4B9A429F
:101320003EBF51F8040B42F8040BF8E700201849BF
:10133000184A91423CBF41F8040BFAE7AEF018FF9F
:10134000AFF098FE144C154DAC4203DA54F8041B70
:101350008847F9E70AF084FF114C124DAC4203DADA
:1013600054F8041B8847F9E7AEF000BF00060020E0
:10137000002200200000010808ED00E0000000202D
:1013800000060020E8E80D0800220020B42B002011
:10139000B82B002080440120E00101083C02010834
:1013A0003C0201083C0201082DE9F04F2DED108AA6
:1013B000C1F80CD0C3689D46BDEC108ABDE8F08F23
:1013C000002383F311882846A0470020ADF060FE7B
:1013D000FEE7ADF0BBFC00DFFEE7000038B510EE25
:1013E000105A25F00044B4F1A14FF0EE407A0DD32D
:1013F000B4F1FF4F58D8DFED4F7A9FED4F7A002DB3
:10140000CCBFB0EE470AB0EE670A38BD4B4B9C42EA
:1014100059D8B4F1445F4AD34FF0FF3227EEA76AA0
:101420009FED475A9FED477ADFED475ADFED474A78
:1014300066EE066A531CA6EE857AE6EEA54A9FED97
:10144000445ADFED445AA7EE265AE4EEA65A9FED21
:10145000427ADFED424AA5EE267AE5EEA64A9FEDF6
:10146000405ADFED405AA7EE265A9FED3F7AA4EE90
:10147000A67AE5EE265A27EE267AA5EE867A27EE9C
:10148000877A35D0394B03EB820393ED046AD3EDB1
:10149000006A37EE467A002D37EE677A36EEC70AD5
:1014A000B3DAB1EE400A38BD30EE000A38BD9FED28
:1014B000307A30EE077AF7EE006AB4EEE67AF1EEB3
:1014C00010FAA9DD38BD00F07DF82A4B9C4212D8F5
:1014D000A3F5D0039C4223D8F0EE007ABFEE007A49
:1014E000A0EE277A002230EE270AC7EE007A95E7B1
:1014F00037EEC70A38BD204B9C420BD8F7EE087A6E
:10150000B7EE007AA0EE277A022230EE670AC0EE2C
:10151000077A83E7BFEE007AC7EE007A03227DE701
:10152000F7EE007A30EE677A30EE270A0122C7EE36
:10153000007A73E7DB0FC9BFDB0FC93FFFFFDF3E58
:10154000D769853C59DA4B3D21A215BD6BF16EBDC3
:10155000356B883D95879DBD6E2EBA3D388EE3BDB7
:101560002549123EABAAAA3ECDCC4CBEAC180C0805
:10157000CAF24971FFFF973FFFFF1B4008B52DEDF1
:10158000028BF0EE408AB0EE608A00F09DF8F4EE37
:10159000488AF1EE10FA06D6DFED098AB4EE688AC1
:1015A000F1EE10FA02D0BDEC028B08BD04F04AFA4D
:1015B00088EEA80ABDEC028B2123036008BD00BFA2
:1015C0000000000010EE103A23F0004300EE103A45
:1015D000704700BF08B52DED028BF0EE408AB0EEEB
:1015E000608A00F053FE20B9B0EE480ABDEC028BD1
:1015F00008BDB0EE480A00F049FE20B1F4EEC88AFA
:10160000F1EE10FAF0D5B0EE680ABDEC028B08BD21
:1016100008B52DED028BB0EE408A01F051F9B4EE21
:10162000488AF1EE10FA0FD6B5EEC08AF1EE10FA44
:101630000ADCB5EE408AF1EE10FA08D104F002FAA5
:1016400022239FED090A0360BDEC028B08BD04F064
:10165000F9F9BDEC028B034621221A600348BDE86C
:10166000084000F0F1BA00BF000080FF18FF0C082E
:1016700008B52DED028BB0EE408A00F007F9B4EE0C
:10168000488AF1EE10FAF0EE408A0AD6B0EE480A27
:10169000FFF798FFF7EE007AB4EEE70AF1EE10FAE2
:1016A00004DCB0EE680ABDEC028B08BD04F0CAF998
:1016B000BDEC028B034621221A600248BDE80840B7
:1016C00000F0C2BA18FF0C0830B583B0CDED010AA6
:1016D000019A22F0004E0EF1FF33B3F1FF4F42D2D8
:1016E00010EE104A24F00040B0F1FF4F3BD270459D
:1016F0003FDB04F000413ED014F0FF4F02F0FF4505
:1017000058D14FEA002C6FF07D034FEA4C0CBCF12E
:10171000000F03F1FF33F8DC002D5CD14FEA0E22FD
:101720006FF07D0C52000CF1FF3CFBD513F17E0FE6
:1017300063DA6FF07D02D21A90406FF07D02A2EB67
:101740000C020EFA02F2B3EB0C0305D11AE012D030
:101750004FEA4E00013B15D0A0EB020EBEF1000F88
:10176000F5DA4000F6E7DDED017A60EE277A87EEE4
:10177000A70A03B030BD234B03EB517393ED000A6E
:1017800003B030BD831A48BF03461BB9F3E75B00C3
:101790000CF1FF3CB3F5000FF9DB1CF17E0F23DBEE
:1017A000A3F500030CF17F0C0B4343EACC5300EE8E
:1017B000103ADEE7C3157F3B002DAFD04FEAEE5E57
:1017C000C4F31604AEF17F0C44F40000C2F3160219
:1017D00042F40002B7E76FF07D044FEAEE5EE41AD0
:1017E000AEF17F0CA040F1E76FF07D02A2EB0C029E
:1017F00013410B4300EE103ABBE7C4F3160444F464
:1018000000009AE7CC180C0808B5FFF701FFDFEDE0
:10181000027A80EE270A08BD1872313F10EE103AA6
:10182000184923F000428A421AD9B2F1FF4F02D37D
:1018300030EE400A704700B583B0684600F030FED5
:1018400000F003000128DDED010A9DED000A10D033
:10185000022809D090B900F0E1FA03B05DF804FB6A
:10186000DFED090A00F0DABA00F0D8FAB1EE400A6A
:10187000F3E700F0CDFDB1EE400AEEE7012000F005
:10188000C7FDEAE7D80F493F0000000008B510EE99
:10189000102A22F00043B3F17E5F2DED028B12D0AF
:1018A0000AD8B3F17C5F19D2B3F10C5F6AD8BDECF2
:1018B000028B9FED760A08BD70EE407A87EEA70A8C
:1018C000BDEC028B08BDBDEC028B9FED710ADFED14
:1018D000717A002AC8BFB0EE670A08BD002AC0F2BC
:1018E0008E80F7EE008A38EEC00AF6EE007A20EE1F
:1018F000278AB0EE480A01F0FBFBDFED677A9FED27
:10190000677ADFED676ADFED675A9FED676AA8EED9
:10191000277ADFED667AE7EE086AE8EE067AE6EE09
:10192000885A9FED636A9FED637ADFED636AA5EEE7
:10193000886AA7EE887ADFED617AE6EE087A10EE23
:10194000103AE7EE086A6FF30B03B0EE677A07EE22
:10195000903AF0EE485AE7EEE75AE6EE888A30EE23
:10196000276A27EE087AC5EE866A87EE286ABDECFC
:10197000028BB0EE667AA0EE067A37EE870A30EE7A
:10198000000A08BD20EE007ADFED437A9FED436A3E
:10199000DFED436A9FED445ADFED425AA7EE276A16
:1019A000BDEC028BE6EE076ADFED407A9FED416AFF
:1019B000E7EE057AE6EE875AA7EE876A9FED3C5A76
:1019C000DFED3D7ADFED3D6AA5EE875AE6EE077A58
:1019D000E5EE076AF7EE005AE7EE875A26EE877AB9
:1019E0009FED376ADFED377AC7EE256AB0EE467AAB
:1019F000A0EE667A30EE470A37EEC00A08BDB7EEB1
:101A0000007A30EE070AF6EE007A60EE277ADFED14
:101A1000226A9FED226ADFED224ADFED235A9FED15
:101A2000215A9FED268AA7EEA66ADFED206AE6EE30
:101A3000274AE7EEA56ADFED1F5A9FED1D6AA4EE67
:101A4000A75AE6EEA75ADFED1C6AA5EE276AE5EE77
:101A5000A76AA6EE278AA6EEA77A28EE278AF0EED6
:101A6000478AB0EE670A01F043FB88EE286A9FEDD3
:101A7000167ADFED167AA0EE067AF0EE006A37EEFF
:101A8000007AE7EE667AB0EE670A19E7DB0FC93F26
:101A9000DB0F49400000000008EF1138047F4F3A87
:101AA000461124BDA80A4E3E2EC69D3D613330BF6F
:101AB00090B0A6BE2D57014039D119C0ABAA2A3E1D
:101AC0006821A233DA0FC93F6821A2B3DA0F494077
:101AD00000F0F8BB08B52DED028BF0EE408AB0EEB9
:101AE000608A00F0D3FB20B9B0EE480ABDEC028B4F
:101AF00008BDB0EE480A00F0C9FB20B1F4EEC88A78
:101B0000F1EE10FAF0DDB0EE680ABDEC028B08BD14
:101B100010EE103A114A23F00043934218D9B3F162
:101B2000FF4F02D330EE400A704700B583B06846DD
:101B300000F0B6FC400000F00200DDED010A9DED72
:101B4000000AC0F1010000F0DBFD03B05DF804FB0A
:101B5000DFED030A012000F0D3BD00BFDA0F493FDB
:101B60000000000010EE103AC3F3C7527F3A162A65
:101B7000194615DC002A0CDB0C481041184205D030
:101B80004FF4800313410B4423EA000300EE103AA4
:101B90007047013203F00043F8D143F07E53F5E77C
:101BA000802AF3D130EE000A704700BFFFFF7F00AC
:101BB00010B485B08DED010A019BC3F3C752A2F1A9
:101BC0007F011E2931DC16294FEAD37425DC1D4B19
:101BD000DDED017A03EB840393ED007A77EE277A4B
:101BE000CDED037ADDED037A77EEC77A17EE903A02
:101BF00033F000400DD0C3F3C7507F381FD4C3F378
:101C0000160343F40003C0F1170023FA00F004B1F7
:101C1000404205B05DF8044B7047C3F3160343F42C
:101C20000003963A03FA02F0F1E7DDED017AFDEEEA
:101C3000E77A17EE900A05B05DF8044B7047002074
:101C4000E5E700BFD4180C089FED010A704700BFFC
:101C50000000C07F08B52DED048BB0EE608AB0EEB9
:101C6000409A01F049FAB4EE488AF1EE10FAF0EE2B
:101C7000408A0BD6B5EE409AF1EE10FA17D1B5EEC8
:101C8000408AF1EE10FA06D1F7EE008AB0EE680A4B
:101C9000BDEC048B08BDB0EE480A00F0EDFA002858
:101CA000F4D0B5EEC08AF1EE10FAEFD525E000F0E1
:101CB000E3FA88B1F5EE408AF1EE10FAE6D1B0EE23
:101CC000490A00F0D9FA0028E0D0B0EE480A00F046
:101CD000D3FA0028DAD010E0B0EE490A00F0CCFACE
:101CE0000028E7D0B0EE480A00F0C6FA0028E1D09C
:101CF000F4EE688AF1EE10FA04D603F0A3FE222374
:101D00000360C3E703F09EFE21230360BEE700BF2C
:101D100010EE102AC2F3C7537F3B162B22F000416E
:101D200032DC002B104618DB1A4919410A422AD02E
:101D3000DFED197A70EE277AF5EEC07AF1EE10FA3F
:101D400021DD002A04DD4FF4000242FA03F31844B7
:101D500020EA010300EE103A7047DFED0F7A70EED3
:101D6000277AF5EEC07AF1EE10FA0CDD002A08DBD6
:101D7000DFED0A7A0029B7EE000A08BFB0EE670A65
:101D800070479FED070A7047B1F1FF4FFBD330EE6C
:101D9000000A7047FFFF7F00CAF24971000000008F
:101DA0000000008008B52DED028BB0EE408A01F0F6
:101DB00057FDF0EE408AB0EE480A00F05DFA68B1D7
:101DC000DFED127AB4EEE78AF1EE10FA0BDCDFED0C
:101DD000107AB4EEE78AF1EE10FA0FD4B0EE680A8A
:101DE000BDEC028B08BDDFED0B8A03F02BFEB0EEDD
:101DF000680ABDEC028B2223036008BD03F022FEBB
:101E00002223DFED058A0360E8E700BF1772B142C5
:101E1000B5F1CFC20000807F0000000010EE103A44
:101E200023F00043B3F1485F2CD2FDEEC07A17EEE9
:101E3000903A002B60D060EE007A9FED317A9FEDF2
:101E4000315ADFED315A9FED316ADFED316AA7EE8D
:101E5000875A9FED307AE7EE855AA7EEA56AA7EE7E
:101E6000867AE7EE876A67EEA66A60EEC00AB6EE8B
:101E7000007AE7EEA60AB7EE000AD7EE870A30EE40
:101E8000600A704760EE007A9FED1D7A9FED1D5A43
:101E9000DFED1D5A9FED1D6ADFED1D6A1E4AA7EE9C
:101EA000875A93429FED1B7AE5EE275AA5EEA76A63
:101EB000A6EE277AE7EE276A66EEA76AD5D9174A13
:101EC000934214D803F17F4307EE103AB7EE006A4D
:101ED00036EE476A60EEC00AF6EE005A97EEA57A33
:101EE000E7EEA60A37EE607A36EE470A7047B6EE9E
:101EF000076AB5EE027AEDE7B7EE000A704700BF59
:101F00004ED747ADF6740F317CF293B4010DD03744
:101F1000ABAA2A3D610BB6BA9999993E0000483F99
:101F200010EE102AC2F3C7537F3B162B22F000415C
:101F300029DC002B104618DB1A4919410A4221D02E
:101F4000DFED197A70EE277AF5EEC07AF1EE10FA2D
:101F500018DD002A04DA4FF4000242FA03F31844B1
:101F600020EA010300EE103A7047DFED0F7A70EEC1
:101F7000277AF5EEC07AF1EE10FA03DD002A08DBCD
:101F80009FED0A0A7047B1F1FF4FFBD330EE000A14
:101F90007047DFED077A0029BFEE000A08BFB0EEF8
:101FA000670A7047FFFF7F00CAF249710000000016
:101FB0000000008010EE103A194923F000428A42D6
:101FC0001BD9B2F1FF4F02D330EE400A704700B583
:101FD00083B0684600F064FA00F003000128DDEDEC
:101FE000010A9DED000A13D002280BD098B90120F8
:101FF00000F00EFA03B05DF804FBDFED0A0A0020E2
:1020000000F006BA012000F003FAB1EE400AF1E751
:10201000FFF704FFEEE7FFF701FFB1EE400AE9E743
:10202000D80F493F0000000008B52DED028BB0EE3F
:10203000408A00F025F8B4EE488AF1EE10FAF0EE8E
:10204000408A0AD6B0EE480AFFF7BCFAF7EE007AEB
:10205000B4EEE70AF1EE10FA04DCB0EE680ABDEC6B
:10206000028B08BD03F0EEFCBDEC028B034621227F
:102070001A600248BDE80840FFF7E6BD18FF0C08EB
:1020800038B510EE105A25F00044B4F17E5F2DED06
:10209000048BF0EE407A7FD077D8B4F17C5F0ED21B
:1020A000B4F1485F80F092809FED637A30EE077A5A
:1020B000F7EE006AB4EEE67AF1EE10FA62DCB0EE0A
:1020C000670AFFF77FFAF7EE007A37EEC08AB6EEBE
:1020D000007A28EE078ADFED596A9FED597A9FED65
:1020E000596A9FED595ADFED595ADFED598AE8EEEA
:1020F000076A9FED587AA8EE067A9FED576AA6EE1A
:10210000885AA7EE086A9FED557ADFED556AE5EE2D
:10211000085AA6EE087AE5EE886AE7EE087AE6EE57
:10212000888AB0EE480AB0EE679A00F0E1FF4D4BA6
:102130009C4268EE888A3AD810EE103A6FF30B038F
:1021400006EE903AA6EEE68A70EE267A88EE895A76
:10215000C8EE274A9FED447ADFED447AB0EE006A7C
:10216000A4EEC67A30EE000AF0EE675A90EE057AD9
:10217000E6EEC65A37EE657A37EEC70A002D01DC67
:10218000B1EE400ABDEC048B38BDBDEC048B70EEA3
:10219000407A87EEA70A38BDBDEC048B9FED320A6A
:1021A0009FED337A27EE800AA7EE870A38BD88EEC6
:1021B000896A9FED307ADFED2E7AA0EE060AF0EE06
:1021C000006AA0EE267A37EEC70AD7E720EE007A3B
:1021D000DFED1B6A9FED196ADFED1B5A9FED195A5F
:1021E000DFED1A4AA7EE266ABDEC048BE6EE075A2D
:1021F000DFED186A9FED186AE7EE056AE5EE874A9B
:10220000A6EE876A9FED165ADFED145ADFED106ACD
:10221000A4EE875AE6EE075AE5EE076AB7EE006AC3
:10222000A5EE876A26EE877AC7EE066AE0EE267A82
:10223000B0EE670A38BD00BFCAF24971047F4F3A59
:1022400008EF11382EC69D3D461124BDA80A4E3E0A
:10225000ABAA2A3E613330BF2D57014039D119C096
:1022600090B0A6BE9999793F2EBD3BB3DB0F493F95
